:100000000C945D000C9485000C9485000C94850084
:100010000C9485000C9485000C9485000C9485004C
:100020000C9485000C9485000C9485000C94F502CA
:100030000C9485000C9485000C9485000C9485002C
:100040000C94AB020C9485000C9479020C9453022E
:100050000C9485000C9485000C9485000C9485000C
:100060000C9485000C94850000000008000201003B
:100070000003040700000000000000000000000072
:10008000250028002B0000000000240027002A0083
:10009000040404040404040402020202020203032E
:1000A0000303030301020408102040800102040836
:1000B0001020010204081020B10311241FBECFEF4D
:1000C000D8E0DEBFCDBF11E0A0E0B1E0E0E0FDE0B0
:1000D00002C005900D92A633B107D9F722E0A6E33E
:1000E000B1E001C01D92A930B207E1F710E0CDE503
:1000F000D0E004C02197FE010E947806CC35D107DC
:10010000C9F70E940E040C947E060C940000AF9276
:10011000BF92CF92DF92EF92FF920F931F93CF93F4
:10012000DF936C017B018B01040F151FEB015E0156
:10013000AE18BF08C017D10759F06991D601ED91EB
:10014000FC910190F081E02DC6010995892B79F78A
:10015000C501DF91CF911F910F91FF90EF90DF903C
:10016000CF90BF90AF900895FC01538D448D252F03
:1001700030E0842F90E0821B930B541710F0CF9641
:10018000089501970895FC01918D828D981761F073
:10019000A28DAE0FBF2FB11D5D968C91928D9F5F8A
:1001A0009F73928F90E008958FEF9FEF0895FC0169
:1001B000918D828D981731F0828DE80FF11D858D1C
:1001C00090E008958FEF9FEF0895FC01918D228DAF
:1001D000892F90E0805C9F4F821B91098F73992734
:1001E000089584E491E00E94E50021E0892B09F460
:1001F00020E0822F089580E090E0892B29F00E9472
:10020000F10081110C9400000895FC01A48DA80F49
:10021000B92FB11DA35ABF4F2C91848D90E0019648
:100220008F739927848FA689B7892C93A089B18968
:100230008C91837080648C93938D848D981306C009
:100240000288F389E02D80818F7D80830895EF926D
:10025000FF920F931F93CF93DF93EC0181E0888F80
:100260009B8D8C8D98131AC0E889F989808185FF50
:1002700015C09FB7F894EE89FF896083E889F989F2
:1002800080818370806480839FBF81E090E0DF91F4
:10029000CF911F910F91FF90EF900895F62E0B8D47
:1002A00010E00F5F1F4F0F731127E02E8C8D8E1102
:1002B0000CC00FB607FCFACFE889F989808185FF69
:1002C000F5CFCE010E940501F1CFEB8DEC0FFD2F94
:1002D000F11DE35AFF4FF0829FB7F8940B8FEA8924
:1002E000FB8980818062CFCFCF93DF93EC01888D33
:1002F0008823B9F0AA89BB89E889F9898C9185FDA1
:1003000003C0808186FD0DC00FB607FCF7CF8C912E
:1003100085FFF2CF808185FFEDCFCE010E940501E0
:10032000E9CFDF91CF91089590E0FC01E859FF4FAC
:100330002491FC01EC55FF4F3491FC01E057FF4F35
:10034000E491EE23C9F0222339F0233001F1A8F41F
:10035000213019F1223029F1F0E0EE0FFF1FE458AF
:10036000FF4FA591B4918FB7F894EC91611126C01D
:1003700030953E233C938FBF08952730A9F0283055
:10038000C9F0243049F7809180008F7D03C08091AF
:1003900080008F7780938000DFCF84B58F7784BD16
:1003A000DBCF84B58F7DFBCF8091B0008F778093BA
:1003B000B000D2CF8091B0008F7DF9CF3E2BDACF45
:1003C0003FB7F89480913C0190913D01A0913E018E
:1003D000B0913F0126B5A89B05C02F3F19F00196AB
:1003E000A11DB11D3FBFBA2FA92F982F8827BC018F
:1003F000CD01620F711D811D911D42E0660F771FB7
:10040000881F991F4A95D1F708958F929F92AF92B6
:10041000BF920F931F93CF93DF93CDB7DEB7A19712
:100420000FB6F894DEBF0FBECDBF19A2423008F45C
:100430004AE08E010F5D1F4F842E912CB12CA12C10
:10044000A50194010E943406E62FB901CA01EA30E1
:1004500044F5E05DD801EE938D01232B242B252B51
:1004600079F790E080E0109769F0FD01019000209D
:10047000E9F73197AF014A1B5B0BBD0184E491E0C2
:100480000E948700A1960FB6F894DEBF0FBECDBFC5
:10049000DF91CF911F910F91BF90AF909F908F9060
:1004A0000895E95CD7CF1F920F920FB60F921124D7
:1004B0002F933F934F935F936F937F938F939F936C
:1004C000AF93BF93EF93FF9384E491E00E94050103
:1004D000FF91EF91BF91AF919F918F917F916F911C
:1004E0005F914F913F912F910F900FBE0F901F90F2
:1004F00018951F920F920FB60F9211242F938F937E
:100500009F93EF93FF93E0915401F0915501808107
:10051000E0915A01F0915B0182FD1BC090818091B6
:100520005D018F5F8F7320915E01821741F0E09132
:100530005D01F0E0EC5BFE4F958F80935D01FF91D4
:10054000EF919F918F912F910F900FBE0F901F9061
:1005500018958081F4CF1F920F920FB60F9211243D
:100560002F933F938F939F93AF93BF9380913801C5
:1005700090913901A0913A01B0913B01309137013E
:1005800023E0230F2D3758F50196A11DB11D2093AF
:1005900037018093380190933901A0933A01B093C9
:1005A0003B0180913C0190913D01A0913E01B091B1
:1005B0003F010196A11DB11D80933C0190933D0127
:1005C000A0933E01B0933F01BF91AF919F918F9156
:1005D0003F912F910F900FBE0F901F90189526E816
:1005E000230F0296A11DB11DD2CF1F920F920FB6FD
:1005F0000F9211242F933F934F935F936F937F93A9
:100600008F939F93AF93BF93CF93DF93EF93FF931A
:1006100080913601C0910502D0E087FF24C010927E
:10062000850010928400809136018F5F809336019F
:1006300080913601082E000C990B8C179D0724F42D
:10064000809136018C30C4F18091840090918500B6
:10065000049680349C4908F47AC08091840090917B
:100660008500049676C080913601082E000C990B07
:100670008C179D07C4F6E09136018E2FEE0F990B73
:10068000FC01EE0FFF1FE80FF91FEF51FE4F8081B5
:1006900086FFC9CFE09136018E2FEE0F990BFC013A
:1006A000EE0FFF1FE80FF91FEF51FE4F808160E052
:1006B0008F730E949401B7CF209184003091850000
:1006C000E09136018E2FEE0F990BFC01EE0FFF1F0C
:1006D000E80FF91FEF51FE4F81819281820F931F26
:1006E0009093890080938800E09136018E2FEE0F61
:1006F000990BFC01EE0FFF1FE80FF91FEF51FE4FA2
:10070000808186FF11C0E09136018E2FEE0F990B8C
:10071000FC01EE0FFF1FE80FF91FEF51FE4F808124
:1007200061E08F730E949401FF91EF91DF91CF916F
:10073000BF91AF919F918F917F916F915F914F91F9
:100740003F912F910F900FBE0F901F90189580E44E
:100750009CE990938900809388008FEF8093360105
:10076000E3CF109247011092460188EE93E0A0E09B
:10077000B0E08093480190934901A0934A01B0935F
:100780004B0184E091E0909345018093440185EC16
:1007900090E0909351018093500184EC90E090930D
:1007A00053018093520180EC90E090935501809327
:1007B000540181EC90E0909357018093560182ECB4
:1007C00090E0909359018093580186EC90E09093CB
:1007D0005B0180935A0110925D0110925E011092AC
:1007E0005F0110926001809105028C3098F491E0D5
:1007F000980F909305028093060290E0FC01EE0FA3
:10080000FF1FE80FF91FEF51FE4F88EB9BE092832B
:10081000818308958FEF809306020895789484B5BC
:10082000826084BD84B5816084BD85B5826085BDEC
:1008300085B5816085BD80916E00816080936E007A
:10084000109281008091810082608093810080916C
:10085000810081608093810080918000816080931D
:1008600080008091B10084608093B1008091B000DD
:1008700081608093B00080917A00846080937A00D8
:1008800080917A00826080937A0080917A00816002
:1008900080937A0080917A00806880937A00109229
:1008A000C100809106028C3008F068C0EDEAF0E0EB
:1008B0002491E9E9F0E08491882399F090E0880F91
:1008C000991FFC01EA57FF4FA591B491FC01E45830
:1008D000FF4F859194918FB7F894EC91E22BEC93B4
:1008E0008FBF80910602282F30E0F901EE0FFF1F25
:1008F000E20FF31FEF51FE4F9081907C996090833F
:1009000010920702109208022CE0622F0E946506E6
:10091000829FB001112430E020E0AB01420F531F51
:10092000FA01EE0FFF1FE40FF51FEF51FE4F90810C
:1009300096FD16C02F5F3F4F2C30310571F78111A6
:100940000FC01092800082E0809381001092850099
:1009500010928400B19A80916F00826080936F0042
:10096000E09106028E2F90E0FC01EE0FFF1FE80FD2
:10097000F91FEF51FE4F808180648083E091540124
:10098000F091550182E08083E0915001F091510196
:100990001082E0915201F09153018FEC808310920C
:1009A0005C01E0915801F091590186E08083E0916B
:1009B0005601F0915701808180618083E09156015A
:1009C000F0915701808188608083E0915601F09119
:1009D0005701808180688083E0915601F091570132
:1009E00080818F7D808388248A9423E0922EA12C9D
:1009F000B12C08E810E0C8E5D2E034EB432E512CCE
:100A0000612C712C40E0242E40E0342E20E4209311
:100A10007C0080917A00806480937A0080917A00D3
:100A200086FDFCCF909178008091790089279827E6
:100A30008927909343018093420148E150E062E1AD
:100A400071E084E491E00E948700C0904201D09060
:100A500043010D2C000CEE08FF084AE0C701B60167
:100A6000F7FE0DC06DE284E491E00E942701662745
:100A70007727CB016C197D098E099F094AE00E94F6
:100A80000502A0914201B091430123EB30E00E94A6
:100A90007106A50194010E94020630934101209342
:100AA000400149E050E06BE271E084E491E00E9493
:100AB0008700C0904001D09041010D2C000CEE0841
:100AC000FF084AE0C701B601F7FE0DC06DE284E4FD
:100AD00091E00E94270166277727CB016C197D09D9
:100AE0008E099F094AE00E940502A0914001B09141
:100AF0004101A03232E0B307B4F5809107026801EA
:100B0000C81AD10887FDD394CC0CDD1CCC0CDD1C9D
:100B10000D2C000CEE08FF08809108029E01281B96
:100B2000310987FD3395220F331F220F331F032E08
:100B3000000C440B550B2C193D094E095F09A53BD0
:100B4000B10514F0A4EBB0E0B7FF02C0B0E0A0E044
:100B50000E942C06A30192010E940206C20ED31E1F
:100B6000E41EF51ED601409106024C3080F58091BE
:100B700007029801281B310987FD3395C901880FA9
:100B8000991F880F991FA817B90784F08091080250
:100B90009E01281B310987FD3395C901880F991FD4
:100BA000880F991FA817B9070CF4CD010297880F79
:100BB000991F6FB7F89450E09A01220F331F240F4A
:100BC000351FF901EF51FE4F928381836FBF0E9461
:100BD000E0016B017C010E94E0016C197D098E0926
:100BE0009F09683E734081059105A8F321143104E3
:100BF00009F40CCF0E94F100882309F407CF0E946A
:100C0000000004CF052E97FB1EF400940E941906E5
:100C100057FD07D00E94340607FC03D04EF40C9415
:100C2000190650954095309521953F4F4F4F5F4F96
:100C3000089590958095709561957F4F8F4F9F4F48
:100C400008950E945606A59F900DB49F900DA49FF5
:100C5000800D911D11240895B7FF0C9421060E9468
:100C60002106821B930B0895A1E21A2EAA1BBB1B1F
:100C7000FD010DC0AA1FBB1FEE1FFF1FA217B30768
:100C8000E407F50720F0A21BB30BE40BF50B661F7E
:100C9000771F881F991F1A9469F760957095809542
:100CA00090959B01AC01BD01CF010895A29FB001B9
:100CB000B39FC001A39F700D811D1124911DB29F90
:100CC000700D811D1124911D0895991B79E004C0B8
:100CD000991F961708F0961B881F7A95C9F780957B
:100CE00008950E945606B7FF0895821B930B08953E
:100CF000EE0FFF1F0590F491E02D0994F894FFCFBB
:100D00000000000027018700B4007401E500C30063
:100D1000D700506F74656E74696F6D65746572206D
:100D2000706F736974696F6E3A20002C20416E6792
:060D30006C653A20000092
:00000001FF
